:100000000C9434000C9449000C9449000C94490061
:100010000C9449000C9449000C9449000C9449003C
:100020000C9449000C9449000C9449000C9449002C
:100030000C9449000C9449000C9449000C9449001C
:100040000C9449000C9449000C9449000C9449000C
:100050000C9449000C9449000C9449000C944900FC
:100060000C9449000C94490011241FBECFEFD8E036
:10007000DEBFCDBF12E0A0E0B1E0EAE9F4E002C0EB
:1000800005900D92A233B107D9F70E9471010C942B
:100090004B020C9400001092C50087E68093C400C8
:1000A00086E08093C20088E18093C100089590911A
:1000B000C00095FFFCCF8093C6000895CF93DF93D7
:1000C000EC0103C021960E94570088818111FACF6C
:1000D000DF91CF9108950F931F93CF93DF93CDB707
:1000E000DEB72A970FB6F894DEBF0FBECDBFAC01C6
:1000F000892B99F580E30E94570044C09A01ADEC2A
:10010000BCEC0E943C0296958795969587959695AE
:1001100087959C01220F331F880F991F880F991F05
:10012000880F991F820F931F9A01281B390BC90151
:10013000E1E0F0E0EC0FFD1FE00FF11F805D808338
:100140009A010E943C02AC015695479556954795F9
:10015000569547950F5F1F4F02C000E010E0411514
:10016000510561F6015011090BC0E1E0F0E0EC0F20
:10017000FD1FE00FF11F80810E94570001501109FF
:1001800011239CF72A960FB6F894DEBF0FBECDBFA1
:10019000DF91CF911F910F91089580E395E7A0E043
:1001A000B0E004C00197A109B10911F04F99FACF4D
:1001B0008BB18F7B8BB92AE02A95F1F700C08BB108
:1001C00080648BB985E38A95F1F700008BB18F7B52
:1001D0008BB980E593ECA0E0B0E004C00197A109E1
:1001E000B109F9F04F9BFACF80E090E0DC010DC03F
:1001F0000196A11DB11D25E02A95F1F70000893B6C
:1002000028E89207A105B10578F44F99F1CFBC0118
:10021000CD012AE230E040E050E00E941A02C9011C
:10022000089587EE93E0089588E793E0089582EAC1
:10023000809380008AE1809381008FE39CE9909312
:100240008700809386000895CF93DF9380E091E04C
:100250000E945E0080EA9FE090938900809388006E
:1002600090938B0080938A0080E391E00E945E006F
:1002700088E491E00E945E00CAE0D0E011C0CE01A7
:100280000E946B0088E791E00E945E002FEF83EDF3
:1002900090E3215080409040E1F700C0000021979A
:1002A0001C161D0664F38BE891E00E945E0080ED51
:1002B00097E0909389008093880090938B008093BF
:1002C0008A002FEF8FE493EC215080409040E1F7BB
:1002D00000C0000089EB91E00E945E00DF91CF91A9
:1002E000089584B1866084B98AB180648AB98AB17C
:1002F0008F778AB98AB18B7F8AB98BB184608BB9C9
:100300000E944B000E9417010E9424010F2EF0ED65
:10031000EF2EF7E0FF2EF02D00ED17E031E0C12CBD
:10032000D12C03C0C12CD12C3C2F89B191E0282FB6
:10033000247082FF90E0C92F211148C0313009F0AC
:1003400045C00C591F4F24E6E20EF11C013A8FE024
:10035000180710F000EA1FE091EAE9169FE0F9069D
:1003600030F00F2EF0EAEF2EFFE0FF2EF02D8091FF
:100370008400909185008D349A49C8F79FB78FB754
:100380008F778FBF1093890000938800F0928B00C5
:10039000E0928A009FBF87EF91E00E945E00C80153
:1003A0000E946B0086E092E00E945E00C7010E94FE
:1003B0006B008FE292E00E945E008FEF90E722E0F8
:1003C000815090402040E1F700C000008FEFC81A34
:1003D000D80A90E3C91695E7D90608F4A5CF0E947C
:1003E000CD000197099708F09DCF8DE092E00E9423
:1003F0005E0080918400909185008D349A49C8F701
:100400002FB78FB78F778FBF80ED97E090938900DC
:100410008093880090938B0080938A002FBF0F2ECB
:10042000F0EDEF2EF7E0FF2EF02D00ED17E0C12CE0
:10043000D12C7ACFA1E21A2EAA1BBB1BFD010DC045
:10044000AA1FBB1FEE1FFF1FA217B307E407F50784
:1004500020F0A21BB30BE40BF50B661F771F881F60
:10046000991F1A9469F760957095809590959B01F6
:10047000AC01BD01CF010895A29FB001B39FC0019F
:10048000A39F700D811D1124911DB29F700D811DC0
:0A0490001124911D0895F894FFCF88
:10049A0053797374656D2053746172742E204361AD
:1004AA006C6962726174696F6E204D6F6465202891
:1004BA0044656C6179204261736564292E0D0A00D6
:1004CA005354455020313A204D41582050574D2021
:1004DA0073656E742E0D0A003E3E20436F6E6E6584
:1004EA0063742062617474657279204E4F572120BB
:1004FA00596F7520686176652035207365636F6E64
:10050A0064732E2E2E0D0A00207365636F6E64735A
:10051A00206C6566742E2E2E0D0A00535445502009
:10052A00323A2053656E64696E67204D494E2050F9
:10053A00574D2E205761697420666F722041726D83
:10054A00696E672E2E2E0D0A0043616C6962726114
:10055A0074696F6E20262041726D696E6720436F41
:10056A006D706C6574652E20456E746572696E6770
:10057A0020537065656420436F6E74726F6C204DF2
:10058A006F64652E0D0A005370656564205550210D
:10059A00204D313A20002C204D323A20004F425350
:1005AA005441434C45204445544543544544212035
:1005BA0053544F5020424F54482045534373210D02
:0205CA000A0025
:00000001FF
