:100000000C944B000C9468000C9468000C946800ED
:100010000C9468000C9468000C9468000C946800C0
:100020000C9468000C9468000C9468000C946800B0
:100030000C9468000C9468000C9468000C946800A0
:100040000C9468000C9468000C9468000C94680090
:100050000C9468000C9468000C9468000C94680080
:100060000C9468000C946800084AD73B3BCE016EA4
:1000700084BCBFFDC12F3D6C74319ABD56833DDAFF
:100080003D00C77F11BED9E4BB4C3E916BAAAABE0E
:10009000000000803F0011241FBECFEFD8E0DEBF7C
:1000A000CDBF12E0A0E0B1E0E2E1F5E102C00590D1
:1000B0000D92AA35B107D9F722E0AAE5B2E001C056
:1000C0001D92A23AB207E1F70E94EE040C94870A4F
:1000D0000C9400009091C00095FFFCCF8093C60067
:1000E0000895CF93DF93EC0103C021960E946A002C
:1000F00088818111FACFDF91CF9108951F93CF931B
:10010000DF93CDB7DEB72A970FB6F894DEBF0FBEE8
:10011000CDBF6115710581059105C1F480E30E9491
:100120006A0027C02AE030E040E050E00E94560A12
:10013000605DE1E0F0E0EC0FFD1FE10FF11D608379
:10014000622F732F842F952F1F5F01C010E0611560
:1001500071058105910531F70AC01150E1E0F0E029
:10016000EC0FFD1FE10FF11D80810E946A0011114B
:10017000F4CF2A960FB6F894DEBF0FBECDBFDF9145
:10018000CF911F910895CF92DF92EF92FF926B0172
:100190007C0199235CF48DE20E946A00F094E09463
:1001A000D094C094C11CD11CE11CF11CC701B60144
:1001B0000E947E00FF90EF90DF90CF9008954F92C5
:1001C0005F926F927F928F929F92AF92BF92CF92E7
:1001D000DF92EF92FF92CF934B015C01C42F80E03E
:1001E000C12CD12C7601C39415C0B701A601440FD0
:1001F000551F661F771F6A017B01CC0CDD1CEE1CAE
:10020000FF1CCC0CDD1CEE1CFF1CC40ED51EE61E14
:10021000F71E8F5F8C1748F320E030E0A901C5017D
:10022000B4010E94030888233CF48DE20E946A0016
:10023000B7FAB094B7F8B094C501B4010E947A0837
:100240002B013C010E94A9089B01AC01C501B4012E
:100250000E9467074B015C01C701B6010E94A90813
:100260009B01AC01C501B4010E948A0920E030E085
:1002700040E05FE30E9468070E947A084B015C013E
:100280006C157D058E059F0548F08FEF481A580ABA
:10029000680A780A8C189D08AE08BF08C301B2012D
:1002A0000E947E00CC2391F18EE20E946A00C70179
:1002B000B6012AE030E040E050E00E94560A6901B1
:1002C0007A011FC0C501B401A70196010E94560A18
:1002D0000F2EFAE04F2E512C612C712CF02DCA01FB
:1002E000B901A30192010E94560A80E3860F0E9481
:1002F0006A00C701B601A30192010E94560A690172
:100300007A01C114D104E104F104E1F6CF91FF9028
:10031000EF90DF90CF90BF90AF909F908F907F90A5
:100320006F905F904F90089582E08093C00010928C
:10033000C50081E28093C40086E08093C20088E01B
:100340008093C100089588EE9DEF02C0019731F0BF
:100350002091BC002223D4F781E0089580E0089525
:100360001092B9008CE08093B80084E08093BC00C8
:100370000895CF93C82F84EA8093BC000E94A30104
:10038000882301F18091B900887F883011F0803195
:10039000C1F4C093BB0084E88093BC000E94A30119
:1003A000882381F09091B900987FC0FF05C081E05B
:1003B000903441F080E006C081E0983119F080E08F
:1003C00001C080E0CF91089584E98093BC00089536
:1003D0008093BB0084E88093BC000E94A301882323
:1003E00039F09091B900987F81E0983209F080E06F
:1003F000089584EC8093BC000E94A3018091BB000F
:10040000089584E88093BC000E94A3018091BB0002
:1004100008951F93CF93DF93D82F162F80ED0E945E
:10042000B901C82F811103C00E94E40115C08D2FAE
:100430000E94E801C82F811103C00E94E4010CC092
:10044000812F0E94E801C82F811103C00E94E4019E
:1004500003C00E94E401C1E08C2FDF91CF911F9176
:1004600008950F931F93CF93DF93D82F8B0180EDC7
:100470000E94B901C82F811103C00E94E40119C074
:100480008D2F0E94E801C82F811103C00E94E40152
:1004900010C081ED0E94B901C82F811103C00E94D4
:1004A000E40107C00E940102F80180830E94E40178
:1004B000C1E08C2FDF91CF911F910F910895FF9292
:1004C0000F931F93CF93DF93F82E8B01D42F80EDE2
:1004D0000E94B901C82F811103C00E94E4012FC0FE
:1004E0008F2D0E94E801C82F811103C00E94E401F2
:1004F00026C081ED0E94B901C82F81111AC00E9447
:10050000E4011DC02C2F30E08D2F90E001972817BB
:10051000390739F40E940102F801EC0FF11D8083C4
:1005200006C00E94F901F801EC0FF11D8083CF5F36
:1005300001C0C0E0CD1730F30E94E401C1E08C2F70
:10054000DF91CF911F910F91FF90089560E08BE6AE
:100550000E9409028823D9F02FEF84E39CE0215008
:1005600080409040E1F700C0000065E08AE10E9411
:100570000902882361F060E18CE10E94090288236E
:1005800031F068E08BE10E940902811181E0089559
:100590004F925F926F927F928F929F92AF92BF9293
:1005A000CF92DF92EF92FF92CF93DF93CDB7DEB77A
:1005B00062970FB6F894DEBF0FBECDBF4EE0BE010E
:1005C0006F5F7F4F8BE30E945F02882309F414C1A1
:1005D000E980F12CFE2CEE248A81E82AF09299021F
:1005E000E0929802AB80B12CBA2CAA248C81A82A64
:1005F000B0927302A09272026D80712C762C6624E8
:100600008E81682A7092830260928202698570E00E
:10061000762F66278A85682B7093970260939602DF
:100620008B84912C982C88248C85882A9092910216
:1006300080929002CD84D12CDC2CCC248E85C82ACB
:10064000D0927902C0927802072E000C880B990B89
:100650000E94AB0820E030E043E852E40E94080822
:10066000609388027093890280938A0290938B0230
:10067000B401990C880B990B0E94AB0820E030E084
:1006800043E852E40E94080860936A0270936B0288
:1006900080936C0290936D02B601DD0C880B990B70
:1006A0000E94AB0820E030E043E852E40E940808D2
:1006B00060939E0270939F028093A0029093A10288
:1006C000B701FF0C880B990B0E94AB0820E030E0CB
:1006D00040E859E30E948A096B017C0160938C0217
:1006E00070938D0280938E0290938F02B501BB0CA4
:1006F000880B990B0E94AB0820E030E040E859E3FA
:100700000E948A094B015C0160936E0270936F0234
:100710008093700290937102B301770C880B990B50
:100720000E94AB0820E030E040E859E30E948A09CB
:100730002B013C01609384027093850280938602B2
:1007400090938702A7019601C701B6010E948A090A
:100750006F87788B898B9A8BA3019201C301B201B9
:100760000E948A092B013C01A30192016F857889BF
:1007700089899A890E9468070E94FD099B01AC0142
:10078000C501B4010E9408080E94D40721EE3EE290
:1007900045E652E40E948A0960939A0270939B0294
:1007A00080939C0290939D02A5019401C501B40120
:1007B0000E948A094B015C01A5019401C301B201A9
:1007C0000E9468070E94FD099B01AC01C701B601A8
:1007D0000E9408080E94D407905821EE3EE245E6A8
:1007E00052E40E948A0960937E0270937F02809394
:1007F00080029093810281E062960FB6F894DEBF8A
:100800000FBECDBFDF91CF91FF90EF90DF90CF90E3
:10081000BF90AF909F908F907F906F905F904F9020
:1008200008952F923F924F925F926F927F928F9294
:100830009F92AF92BF92CF92DF92EF92FF920F936F
:100840001F93CF93DF93EC011B01CA01B90127016C
:100850003801C880D980EA80FB802FE632E143E886
:100860005BE30E948A099B01AC01C701B6010E94AB
:100870006807688379838A839B83F1016081718132
:10088000828193812EEB37E346E859E30E946807A3
:100890006B017C01F101608371838283938320E08B
:1008A00030E040E151E40E9468079B01AC01C701C0
:1008B000B6010E9408086B017C0188809980AA809B
:1008C000BB80A5019401C301B2010E9467079B018F
:1008D000AC01C701B6010E948A099B01AC01C501A8
:1008E000B4010E946807688379838A839B83A70188
:1008F000960160E070E080E89FE30E946707F101E5
:1009000020813181428153810E948A09F1016083F3
:10091000718382839383DF91CF911F910F91FF9019
:10092000EF90DF90CF90BF90AF909F908F907F908F
:100930006F905F904F903F902F900895109280009D
:10094000E1E8F0E0108210928500109284008FE3BD
:100950009FE1909389008093880082E086BB8AE0C3
:1009600080830895B19BFECF82E086BB089588E026
:1009700091E00E947100089560915E0270915F02A3
:10098000809160029091610242E00E94DF008CE25F
:100990000E946A0060915A0270915B0280915C0231
:1009A00090915D0242E00E94DF008EE092E00E94A2
:1009B000710008950E9471008EE092E00E94710023
:1009C00095B180E2892785B92FEF84E39CE021501F
:1009D00080409040E1F700C00000F2CFCF93DF935A
:1009E0001F92CDB7DEB7198284B1806284B985B118
:1009F0008F7D85B90E9494010E94B00181E291E04F
:100A00000E9471000E94A602811104C081E591E05C
:100A10000E94DA04BE016F5F7F4F85E70E943102BA
:100A2000811104C085E691E00E94DA048AE891E031
:100A30000E947100698170E080E090E00E94C30034
:100A40008EE092E00E9471008981883621F084E96D
:100A500091E00E9471008DED91E00E94710000E034
:100A600010E0ABC00E94C802811104C081E192E095
:100A70000E94DA04209188023091890240918A0212
:100A800050918B0260919202709193028091940236
:100A9000909195020E94680760939202709393026E
:100AA000809394029093950220916A0230916B0298
:100AB00040916C0250916D0260917A0270917B02BC
:100AC00080917C0290917D020E94680760937A0277
:100AD00070937B0280937C0290937D0220919E0212
:100AE00030919F024091A0025091A1026091740246
:100AF0007091750280917602909177020E9468074A
:100B000060937402709375028093760290937702DB
:100B100020919A0230919B0240919C0250919D023B
:100B200060916602709167028091680290916902FB
:100B30000E94680760936602709367028093680260
:100B40009093690220917E0230917F024091800251
:100B500050918102609162027091630280916402FF
:100B6000909165020E94680760936202709363022D
:100B70008093640290936502980136952795369587
:100B8000279536952795ABE7B4E10E94780A9695AC
:100B9000879548EC489F9001499F300D112402171A
:100BA000130719F48EE20E946A008FE99FE0019713
:100BB000F1F700C000000F5F1F4F003D97E01907DD
:100BC00008F450CF8EE092E00E94710020E030E007
:100BD0004AEF54E4609192027091930280919402E2
:100BE000909195020E94080860939202709393027C
:100BF000809394029093950220E030E04AEF54E411
:100C000060917A0270917B0280917C0290917D02CA
:100C10000E94080860937A0270937B0280937C02A2
:100C200090937D0220E030E04AEF54E4609174023A
:100C30007091750280917602909177020E94080867
:100C4000609374027093750280937602909377029A
:100C500020E030E04AEF54E4609166027091670250
:100C600080916802909169020E9408086093660270
:100C700070936702809368029093690220E030E0ED
:100C80004AEF54E4609162027091630280916402C1
:100C9000909165020E94080860936202709363025B
:100CA00080936402909365020E94C802811104C07F
:100CB0008DE292E00E94DA04209166023091670290
:100CC000409168025091690260919A0270919B0272
:100CD00080919C0290919D020E94670760935E0242
:100CE00070935F0280936002909361022091620290
:100CF00030916302409164025091650260917E02DE
:100D000070917F0280918002909181020E9467071A
:100D100060935A0270935B0280935C0290935D0231
:100D200080E090E0A0E8B0E4809304019093050196
:100D3000A0930601B09307018093000190930101F5
:100D4000A0930201B09303010E949E040E94B70485
:100D5000D12C0E94B2040E94C802811105C088E40F
:100D600092E00E947100F5CF20919202309193029F
:100D7000409194025091950260918802709189028D
:100D800080918A0290918B020E9467074B015C015F
:100D9000609388027093890280938A0290938B02F9
:100DA00020917A0230917B0240917C0250917D0229
:100DB00060916A0270916B0280916C0290916D0259
:100DC0000E94670760936A0270936B0280936C02C3
:100DD00090936D02209174023091750240917602D9
:100DE0005091770260919E0270919F028091A002C3
:100DF0009091A1020E94670760939E0270939F02E8
:100E00008093A0029093A102209166023091670224
:100E1000409168025091690260919A0270919B0220
:100E200080919C0290919D020E9467072B013C01DA
:100E300060939A0270939B0280939C0290939D0210
:100E400020916202309163024091640250916502E8
:100E500060917E0270917F02809180029091810268
:100E60000E94670760937E0270937F0280938002E6
:100E70009093810283017201A501940164E071E005
:100E80008EE592E00E941104E0907E02F0907F02D5
:100E9000009180021091810220916A0230916B02D0
:100EA00040916C0250916D0260E071E08AE592E041
:100EB0000E941104D39489E08D1508F04ACF95B1B2
:100EC00080E2892785B90E94BC04D12C42CF5058BA
:100ED000BB27AA270E947F070C9448090E943A0961
:100EE00038F00E94410920F039F49F3F19F426F4AC
:100EF0000C9410090EF4E095E7FB0C940A09E92F15
:100F00000E94590958F3BA176207730784079507B7
:100F100020F079F4A6F50C947B090EF4E0950B2EE5
:100F2000BA2FA02D0B01B90190010C01CA01A0013B
:100F30001124FF27591B99F0593F50F4503E68F196
:100F40001A16F040A22F232F342F4427585FF3CFD7
:100F5000469537952795A795F0405395C9F77EF4A8
:100F60001F16BA0B620B730B840BBAF09150A1F0F1
:100F7000FF0FBB1F661F771F881FC2F70EC0BA0F77
:100F8000621F731F841F48F4879577956795B795FF
:100F9000F7959E3F08F0B0CF9395880F08F09927FA
:100FA000EE0F979587950895DF93DD27B92FBF77CB
:100FB00040E85FE31616170648075B0718F4D92FB9
:100FC0000E9482099F938F937F936F930E943D0AA3
:100FD000E8E6F0E00E9413090E9448092F913F9132
:100FE0004F915F910E949D09DD2351F09058A2EA34
:100FF0002AED3FE049EC5FE3D0785D270E947F0750
:10100000DF910C9448090E94E60808F481E00895F5
:101010000E941C080C9448090E94410958F00E9443
:101020003A0940F029F45F3F29F00C940A09511164
:101030000C947C090C9410090E94590968F39923B7
:10104000B1F3552391F3951B550BBB27AA276217C4
:101050007307840738F09F5F5F4F220F331F441FD1
:10106000AA1FA9F335D00E2E3AF0E0E832D0915005
:101070005040E695001CCAF72BD0FE2F29D0660FF2
:10108000771F881FBB1F261737074807AB07B0E835
:1010900009F0BB0B802DBF01FF2793585F4F3AF03B
:1010A0009E3F510578F00C940A090C947C095F3F2F
:1010B000E4F3983ED4F3869577956795B795F795C1
:1010C0009F5FC9F7880F911D9695879597F90895A9
:1010D000E1E0660F771F881FBB1F62177307840745
:1010E000BA0720F0621B730B840BBA0BEE1F88F754
:1010F000E09508950E94610988F09F5798F0B92FF4
:101100009927B751B0F0E1F0660F771F881F991F3C
:101110001AF0BA95C9F714C0B13091F00E947B095A
:10112000B1E008950C947B09672F782F8827B85F6A
:1011300039F0B93FCCF3869577956795B395D9F794
:101140003EF490958095709561957F4F8F4F9F4F9E
:101150000895E89409C097FB3EF4909580957095AA
:1011600061957F4F8F4F9F4F9923A9F0F92F96E9F3
:10117000BB279395F695879577956795B795F11168
:10118000F8CFFAF4BB0F11F460FF1BC06F5F7F4F05
:101190008F4F9F4F16C0882311F096E911C0772317
:1011A00021F09EE8872F762F05C0662371F096E820
:1011B000862F70E060E02AF09A95660F771F881FEF
:1011C000DAF7880F9695879597F90895990F000893
:1011D000550FAA0BE0E8FEEF16161706E807F90709
:1011E000C0F012161306E407F50798F0621B730BA4
:1011F000840B950B39F40A2661F0232B242B252B25
:1012000021F408950A2609F4A140A6958FEF811DC7
:10121000811D089597F99F6780E870E060E0089568
:101220009FEF80EC0895DF93CF931F930F93FF926E
:10123000EF92DF927B018C01689406C0DA2EEF01F9
:101240000E949D09FE01E894A59125913591459153
:101250005591A6F3EF010E947F07FE019701A801B7
:10126000DA9469F7DF90EF90FF900F911F91CF9183
:10127000DF91089500240A94161617061806090629
:10128000089500240A9412161306140605060895FC
:10129000092E0394000C11F4882352F0BB0F40F484
:1012A000BF2B11F460FF04C06F5F7F4F8F4F9F4FC4
:1012B000089557FD9058440F551F59F05F3F71F046
:1012C0004795880F97FB991F61F09F3F79F08795AD
:1012D0000895121613061406551FF2CF4695F1DF36
:1012E00008C0161617061806991FF1CF86957105C6
:1012F000610508940895E894BB2766277727CB01FA
:1013000097F908959B01AC0160E070E080E89FE3ED
:101310000C9408080E949D090C9448090E943A09FF
:1013200038F00E94410920F0952311F00C940A092D
:101330000C94100911240C947C090E94590970F333
:10134000959FC1F3950F50E0551F629FF001729F6A
:10135000BB27F00DB11D639FAA27F00DB11DAA1F79
:10136000649F6627B00DA11D661F829F2227B00DC6
:10137000A11D621F739FB00DA11D621F839FA00D51
:10138000611D221F749F3327A00D611D231F849FA1
:10139000600D211D822F762F6A2F11249F575040F8
:1013A0009AF0F1F088234AF0EE0FFF1FBB1F661F73
:1013B000771F881F91505040A9F79E3F510580F03C
:1013C0000C940A090C947C095F3FE4F3983ED4F333
:1013D000869577956795B795F795E7959F5FC1F7E0
:1013E000FE2B880F911D9695879597F9089519F40E
:1013F00016F40C9410090C94410A0E946109B8F388
:101400009923C9F3B6F39F57550B87FF0E944F0AE4
:101410000024A0E640EA900180585695979528F45C
:10142000805C660F771F881F20F026173707480754
:1014300030F4621B730B840B202931294A2BA695AB
:1014400017940794202531254A2758F7660F771FF0
:10145000881F20F026173707480730F4620B730BFC
:10146000840B200D311D411DA09581F7B901842FFA
:101470009158880F9695879508959B01AC010C941F
:101480008A099F3F31F0915020F4879577956795B1
:10149000B795880F911D9695879597F90895915066
:1014A0005040660F771F881FD2F70895A1E21A2EC9
:1014B000AA1BBB1BFD010DC0AA1FBB1FEE1FFF1FF8
:1014C000A217B307E407F50720F0A21BB30BE40B48
:1014D000F50B661F771F881F991F1A9469F760958F
:1014E0007095809590959B01AC01BD01CF01089549
:1014F000A29FB001B39FC001A39F700D811D112455
:10150000911DB29F700D811D1124911D0895F894B5
:02151000FFCF0B
:1015120000008040000080404B616C6D616E526F34
:101522006C6C2C4B616C6D616E50697463680D0A52
:10153200004D50553630353020436172626F6E2057
:101542003144204B616C6D616E2C2041746D656C71
:101552002053747564696F206D61696E2E630D0A84
:10156200004D50553630353020696E697420666101
:10157200696C65640057484F5F414D5F4920726551
:101582006164206661696C656420617420616464D1
:101592007265737320307836380057484F5F414D7B
:1015A2005F493D005761726E696E673A2057484F36
:1015B2005F414D5F49206973206E6F742031303472
:1015C2002C20627574204932432072656164207355
:1015D20075636365656465642E20436F6E74696E1E
:1015E200756520616E797761792E0D0A004B65650C
:1015F20070204D505536303530207374696C6C2E26
:101602002043616C6962726174696E6720677972E6
:101612006F20616E6420616363656C2E2E2E0D0A4D
:101622000043616C6962726174696F6E2049324372
:101632002072656164206661696C656400496E6947
:101642007469616C2073656E736F72207265616478
:10165200206661696C656400493243207265616489
:0A166200206572726F720D0A00001D
:00000001FF
