:100000000C944B000C9468000C9468000C946800ED
:100010000C9468000C9468000C9468000C946800C0
:100020000C9468000C9468000C9468000C946800B0
:100030000C9468000C9468000C9468000C946800A0
:100040000C9468000C9468000C9468000C94680090
:100050000C9468000C9468000C9468000C94680080
:100060000C9468000C946800084AD73B3BCE016EA4
:1000700084BCBFFDC12F3D6C74319ABD56833DDAFF
:100080003D00C77F11BED9E4BB4C3E916BAAAABE0E
:10009000000000803F0011241FBECFEFD8E0DEBF7C
:1000A000CDBF12E0A0E0B1E0EAECF3E102C00590C0
:1000B0000D92A035B107D9F722E0A0E5B2E001C06A
:1000C0001D92A039B207E1F70E94EE040C94E309F7
:1000D0000C9400009091C00095FFFCCF8093C60067
:1000E0000895CF93DF93EC0103C021960E946A002C
:1000F00088818111FACFDF91CF9108951F93CF931B
:10010000DF93CDB7DEB72A970FB6F894DEBF0FBEE8
:10011000CDBF6115710581059105C1F480E30E9491
:100120006A0027C02AE030E040E050E00E94B209B7
:10013000605DE1E0F0E0EC0FFD1FE10FF11D608379
:10014000622F732F842F952F1F5F01C010E0611560
:1001500071058105910531F70AC01150E1E0F0E029
:10016000EC0FFD1FE10FF11D80810E946A0011114B
:10017000F4CF2A960FB6F894DEBF0FBECDBFDF9145
:10018000CF911F910895CF92DF92EF92FF926B0172
:100190007C0199235CF48DE20E946A00F094E09463
:1001A000D094C094C11CD11CE11CF11CC701B60144
:1001B0000E947E00FF90EF90DF90CF9008954F92C5
:1001C0005F926F927F928F929F92AF92BF92CF92E7
:1001D000DF92EF92FF92CF934B015C01C42F80E03E
:1001E000C12CD12C7601C39415C0B701A601440FD0
:1001F000551F661F771F6A017B01CC0CDD1CEE1CAE
:10020000FF1CCC0CDD1CEE1CFF1CC40ED51EE61E14
:10021000F71E8F5F8C1748F320E030E0A901C5017D
:10022000B4010E945F0788233CF48DE20E946A00BB
:10023000B7FAB094B7F8B094C501B4010E94D607DC
:100240002B013C010E9405089B01AC01C501B401D2
:100250000E94C3064B015C01C701B6010E9405085C
:100260009B01AC01C501B4010E94E60820E030E02A
:1002700040E05FE30E94C4060E94D6074B015C0188
:100280006C157D058E059F0548F08FEF481A580ABA
:10029000680A780A8C189D08AE08BF08C301B2012D
:1002A0000E947E00CC2391F18EE20E946A00C70179
:1002B000B6012AE030E040E050E00E94B209690156
:1002C0007A011FC0C501B401A70196010E94B209BD
:1002D0000F2EFAE04F2E512C612C712CF02DCA01FB
:1002E000B901A30192010E94B20980E3860F0E9426
:1002F0006A00C701B601A30192010E94B209690117
:100300007A01C114D104E104F104E1F6CF91FF9028
:10031000EF90DF90CF90BF90AF909F908F907F90A5
:100320006F905F904F90089582E08093C00010928C
:10033000C50081E28093C40086E08093C20088E01B
:100340008093C100089588EE9DEF02C0019731F0BF
:100350002091BC002223D4F781E0089580E0089525
:100360001092B9008CE08093B80084E08093BC00C8
:100370000895CF93C82F84EA8093BC000E94A30104
:10038000882301F18091B900887F883011F0803195
:10039000C1F4C093BB0084E88093BC000E94A30119
:1003A000882381F09091B900987FC0FF05C081E05B
:1003B000903441F080E006C081E0983119F080E08F
:1003C00001C080E0CF91089584E98093BC00089536
:1003D0008093BB0084E88093BC000E94A301882323
:1003E00039F09091B900987F81E0983209F080E06F
:1003F000089584EC8093BC000E94A3018091BB000F
:10040000089584E88093BC000E94A3018091BB0002
:1004100008951F93CF93DF93D82F162F80ED0E945E
:10042000B901C82F811103C00E94E40115C08D2FAE
:100430000E94E801C82F811103C00E94E4010CC092
:10044000812F0E94E801C82F811103C00E94E4019E
:1004500003C00E94E401C1E08C2FDF91CF911F9176
:1004600008950F931F93CF93DF93D82F8B0180EDC7
:100470000E94B901C82F811103C00E94E40119C074
:100480008D2F0E94E801C82F811103C00E94E40152
:1004900010C081ED0E94B901C82F811103C00E94D4
:1004A000E40107C00E940102F80180830E94E40178
:1004B000C1E08C2FDF91CF911F910F910895FF9292
:1004C0000F931F93CF93DF93F82E8B01D42F80EDE2
:1004D0000E94B901C82F811103C00E94E4012FC0FE
:1004E0008F2D0E94E801C82F811103C00E94E401F2
:1004F00026C081ED0E94B901C82F81111AC00E9447
:10050000E4011DC02C2F30E08D2F90E001972817BB
:10051000390739F40E940102F801EC0FF11D8083C4
:1005200006C00E94F901F801EC0FF11D8083CF5F36
:1005300001C0C0E0CD1730F30E94E401C1E08C2F70
:10054000DF91CF911F910F91FF90089560E08BE6AE
:100550000E9409028823D9F02FEF84E39CE0215008
:1005600080409040E1F700C0000065E08AE10E9411
:100570000902882361F060E18CE10E94090288236E
:1005800031F068E08BE10E940902811181E0089559
:100590004F925F926F927F928F929F92AF92BF9293
:1005A000CF92DF92EF92FF92CF93DF93CDB7DEB77A
:1005B00062970FB6F894DEBF0FBECDBF4EE0BE010E
:1005C0006F5F7F4F8BE30E945F02882309F414C1A1
:1005D000E980F12CFE2CEE248A81E82AF092870231
:1005E000E0928602AB80B12CBA2CAA248C81A82A76
:1005F000B0926102A09260026D80712C762C66240C
:100600008E81682A7092710260927002698570E032
:10061000762F66278A85682B709385026093840203
:100620008B84912C982C88248C85882A90927F0228
:1006300080927E02CD84D12CDC2CCC248E85C82ADD
:10064000D0926702C0926602072E000C880B990BAD
:100650000E94070820E030E043E852E40E9464076B
:100660006093760270937702809378029093790278
:10067000B401990C880B990B0E94070820E030E028
:1006800043E852E40E946407609358027093590251
:1006900080935A0290935B02B601DD0C880B990B94
:1006A0000E94070820E030E043E852E40E9464071B
:1006B00060938C0270938D0280938E0290938F02D0
:1006C000B701FF0C880B990B0E94070820E030E06F
:1006D00040E859E30E94E6086B017C0160937A02CE
:1006E00070937B0280937C0290937D02B501BB0CDA
:1006F000880B990B0E94070820E030E040E859E39E
:100700000E94E6084B015C0160935C0270935D02FD
:1007100080935E0290935F02B301770C880B990B74
:100720000E94070820E030E040E859E30E94E60814
:100730002B013C01609372027093730280937402E8
:1007400090937502A7019601C701B6010E94E608C1
:100750006F87788B898B9A8BA3019201C301B201B9
:100760000E94E6082B013C01A30192016F85788964
:1007700089899A890E94C4060E9459099B01AC018B
:10078000C501B4010E9464070E94300721EE3EE2D9
:1007900045E652E40E94E60860938802709389025D
:1007A00080938A0290938B02A5019401C501B40144
:1007B0000E94E6084B015C01A5019401C301B2014E
:1007C0000E94C4060E9459099B01AC01C701B601F1
:1007D0000E9464070E943007905821EE3EE245E6F1
:1007E00052E40E94E60860936C0270936D0280935D
:1007F0006E0290936F0281E062960FB6F894DEBFAE
:100800000FBECDBFDF91CF91FF90EF90DF90CF90E3
:10081000BF90AF909F908F907F906F905F904F9020
:1008200008952F923F924F925F926F927F928F9294
:100830009F92AF92BF92CF92DF92EF92FF920F936F
:100840001F93CF93DF93EC011B01CA01B90127016C
:100850003801C880D980EA80FB802FE632E143E886
:100860005BE30E94E6089B01AC01C701B6010E9450
:10087000C406688379838A839B83F10160817181D7
:10088000828193812EEB37E346E859E30E94C40648
:100890006B017C01F101608371838283938320E08B
:1008A00030E040E151E40E94C4069B01AC01C70165
:1008B000B6010E9464076B017C0188809980AA8040
:1008C000BB80A5019401C301B2010E94C3069B0134
:1008D000AC01C701B6010E94E6089B01AC01C5014D
:1008E000B4010E94C406688379838A839B83A7012D
:1008F000960160E070E080E89FE30E94C306F1018A
:1009000020813181428153810E94E608F101608398
:10091000718382839383DF91CF911F910F91FF9019
:10092000EF90DF90CF90BF90AF909F908F907F908F
:100930006F905F904F903F902F900895109280009D
:10094000E1E8F0E0108210928500109284008FE3BD
:100950009FE1909389008093880082E086BB8AE0C3
:1009600080830895B19BFECF82E086BB089588E026
:1009700091E00E94710008956091540270915502B7
:10098000809156029091570242E00E94DF008CE273
:100990000E946A006091500270915102809152024F
:1009A0009091530242E00E94DF0084E092E00E94B6
:1009B000710008950E94710084E092E00E9471002D
:1009C00095B180E2892785B92FEF84E39CE021501F
:1009D00080409040E1F700C00000F2CFCF93DF935A
:1009E0001F92CDB7DEB7198284B1806284B985B118
:1009F0008F7D85B90E9494010E94B00181E291E04F
:100A00000E9471000E94A602811104C081E591E05C
:100A10000E94DA04BE016F5F7F4F85E70E943102BA
:100A2000811104C085E691E00E94DA048AE891E031
:100A30000E947100698170E080E090E00E94C30034
:100A400084E092E00E9471008981883621F084E977
:100A500091E00E9471008DED91E00E94710000E034
:100A600010E077C00E94C802811104C087E092E0C4
:100A70000E94DA0420917602309177024091780248
:100A8000509179026091800270918102809182027E
:100A9000909183020E94C406609380027093810249
:100AA00080938202909383022091580230915902E0
:100AB00040915A0250915B02609168027091690204
:100AC00080916A0290916B020E94C4066093680252
:100AD0007093690280936A0290936B0220918C025A
:100AE00030918D0240918E0250918F02609162028E
:100AF0007091630280916402909165020E94C40625
:100B00006093620270936302809364029093650223
:100B10009801369527953695279536952795ABE715
:100B2000B4E10E94D4099695879548EC489F9001BE
:100B3000499F300D11240217130719F48EE20E9409
:100B40006A008FE99FE00197F1F700C000000F5F96
:100B50001F4F003D97E0190708F484CF84E092E02E
:100B60000E94710020E030E04AEF54E4609180027E
:100B70007091810280918202909183020E946407A9
:100B8000609380027093810280938202909383022B
:100B900020E030E04AEF54E460916802709169020D
:100BA00080916A0290916B020E94640760936802D0
:100BB0007093690280936A0290936B0220E030E0A8
:100BC0004AEF54E460916202709163028091640282
:100BD000909165020E9464076093620270936302C1
:100BE00080936402909365020E94C802811104C040
:100BF00083E292E00E94DA04809188029091890257
:100C0000A0918A02B0918B02809354029093550276
:100C1000A0935602B093570280916C0290916D029E
:100C2000A0916E02B0916F02809350029093510296
:100C3000A0935202B093530280E090E0A0E8B0E4A9
:100C40008093040190930501A0930601B0930701DE
:100C50008093000190930101A0930201B0930301DE
:100C60000E949E040E94B704D12C0E94B2040E94EC
:100C7000C802811105C08EE392E00E947100F5CF99
:100C80002091800230918102409182025091830232
:100C9000609176027091770280917802909179024A
:100CA0000E94C3064B015C01609376027093770249
:100CB00080937802909379022091680230916902C2
:100CC00040916A0250916B026091580270915902F2
:100CD00080915A0290915B020E94C3066093580271
:100CE0007093590280935A0290935B0220916202A2
:100CF00030916302409164025091650260918C02D0
:100D000070918D0280918E0290918F020E94C30695
:100D100060938C0270938D0280938E0290938F0269
:100D2000E0908802F090890200918A0210918B0273
:100D3000A501940164E071E084E592E00E94110451
:100D4000E0906C02F0906D0200916E0210916F02C3
:100D5000209158023091590240915A0250915B0201
:100D600060E071E080E592E00E941104D39489E094
:100D70008D1508F07ACF95B180E2892785B90E9458
:100D8000BC04D12C72CF5058BB27AA270E94DB0687
:100D90000C94A4080E94960838F00E949D0820F048
:100DA00039F49F3F19F426F40C946C080EF4E09586
:100DB000E7FB0C946608E92F0E94B50858F3BA17B0
:100DC000620773078407950720F079F4A6F50C9461
:100DD000D7080EF4E0950B2EBA2FA02D0B01B90108
:100DE00090010C01CA01A0011124FF27591B99F0A1
:100DF000593F50F4503E68F11A16F040A22F232FAD
:100E0000342F4427585FF3CF469537952795A795FC
:100E1000F0405395C9F77EF41F16BA0B620B730BA3
:100E2000840BBAF09150A1F0FF0FBB1F661F771F14
:100E3000881FC2F70EC0BA0F621F731F841F48F4C9
:100E4000879577956795B795F7959E3F08F0B0CF52
:100E50009395880F08F09927EE0F97958795089539
:100E6000DF93DD27B92FBF7740E85FE3161617063B
:100E700048075B0718F4D92F0E94DE089F938F93D1
:100E80007F936F930E949909E8E6F0E00E946F0853
:100E90000E94A4082F913F914F915F910E94F90801
:100EA000DD2351F09058A2EA2AED3FE049EC5FE3E0
:100EB000D0785D270E94DB06DF910C94A4080E9485
:100EC000420808F481E008950E9478070C94A40871
:100ED0000E949D0858F00E94960840F029F45F3F58
:100EE00029F00C94660851110C94D8080C946C08E5
:100EF0000E94B50868F39923B1F3552391F3951B2C
:100F0000550BBB27AA2762177307840738F09F5F2A
:100F10005F4F220F331F441FAA1FA9F335D00E2E97
:100F20003AF0E0E832D091505040E695001CCAF704
:100F30002BD0FE2F29D0660F771F881FBB1F2617C7
:100F400037074807AB07B0E809F0BB0B802DBF019E
:100F5000FF2793585F4F3AF09E3F510578F00C946D
:100F600066080C94D8085F3FE4F3983ED4F3869566
:100F700077956795B795F7959F5FC9F7880F911D8E
:100F80009695879597F90895E1E0660F771F881F7A
:100F9000BB1F621773078407BA0720F0621B730B2D
:100FA000840BBA0BEE1F88F7E09508950E94BD08E8
:100FB00088F09F5798F0B92F9927B751B0F0E1F01A
:100FC000660F771F881F991F1AF0BA95C9F714C0CA
:100FD000B13091F00E94D708B1E008950C94D70881
:100FE000672F782F8827B85F39F0B93FCCF3869503
:100FF00077956795B395D9F73EF490958095709560
:1010000061957F4F8F4F9F4F0895E89409C097FBDC
:101010003EF490958095709561957F4F8F4F9F4FCF
:101020009923A9F0F92F96E9BB279395F695879513
:1010300077956795B795F111F8CFFAF4BB0F11F4D6
:1010400060FF1BC06F5F7F4F8F4F9F4F16C088237D
:1010500011F096E911C0772321F09EE8872F762FB3
:1010600005C0662371F096E8862F70E060E02AF0F4
:101070009A95660F771F881FDAF7880F96958795E0
:1010800097F90895990F0008550FAA0BE0E8FEEFB5
:1010900016161706E807F907C0F012161306E4073C
:1010A000F50798F0621B730B840B950B39F40A2635
:1010B00061F0232B242B252B21F408950A2609F413
:1010C000A140A6958FEF811D811D089597F99F6717
:1010D00080E870E060E008959FEF80EC0895DF9372
:1010E000CF931F930F93FF92EF92DF927B018C01BE
:1010F000689406C0DA2EEF010E94F908FE01E89418
:10110000A5912591359145915591A6F3EF010E9446
:10111000DB06FE019701A801DA9469F7DF90EF90F2
:10112000FF900F911F91CF91DF91089500240A94B1
:101130001616170618060906089500240A941216B2
:101140001306140605060895092E0394000C11F4E5
:10115000882352F0BB0F40F4BF2B11F460FF04C092
:101160006F5F7F4F8F4F9F4F089557FD9058440FEB
:10117000551F59F05F3F71F04795880F97FB991FF6
:1011800061F09F3F79F087950895121613061406B3
:10119000551FF2CF4695F1DF08C016161706180640
:1011A000991FF1CF86957105610508940895E8941B
:1011B000BB2766277727CB0197F908959B01AC01E0
:1011C00060E070E080E89FE30C9464070E94F908F7
:1011D0000C94A4080E94960838F00E949D0820F004
:1011E000952311F00C9466080C946C0811240C944F
:1011F000D8080E94B50870F3959FC1F3950F50E091
:10120000551F629FF001729FBB27F00DB11D639FB8
:10121000AA27F00DB11DAA1F649F6627B00DA11D5E
:10122000661F829F2227B00DA11D621F739FB00D04
:10123000A11D621F839FA00D611D221F749F332774
:10124000A00D611D231F849F600D211D822F762F0D
:101250006A2F11249F5750409AF0F1F088234AF0EA
:10126000EE0FFF1FBB1F661F771F881F9150504056
:10127000A9F79E3F510580F00C9466080C94D8089D
:101280005F3FE4F3983ED4F3869577956795B795DD
:10129000F795E7959F5FC1F7FE2B880F911D9695F7
:1012A000879597F9089519F416F40C946C080C942A
:1012B0009D090E94BD08B8F39923C9F3B6F39F575F
:1012C000550B87FF0E94AB090024A0E640EA90017D
:1012D00080585695979528F4805C660F771F881F75
:1012E00020F026173707480730F4621B730B840B76
:1012F000202931294A2BA6951794079420253125BA
:101300004A2758F7660F771F881F20F026173707E0
:10131000480730F4620B730B840B200D311D411D07
:10132000A09581F7B901842F9158880F96958795DC
:1013300008959B01AC010C94E6089F3F31F0915059
:1013400020F4879577956795B795880F911D9695A9
:10135000879597F9089591505040660F771F881F21
:10136000D2F70895A1E21A2EAA1BBB1BFD010DC0E6
:10137000AA1FBB1FEE1FFF1FA217B307E407F50745
:1013800020F0A21BB30BE40BF50B661F771F881F21
:10139000991F1A9469F760957095809590959B01B7
:1013A000AC01BD01CF010895A29FB001B39FC00160
:1013B000A39F700D811D1124911DB29F700D811D81
:0A13C0001124911D0895F894FFCF49
:1013CA0000008040000080404B616C6D616E526F7E
:1013DA006C6C2C4B616C6D616E50697463680D0A9C
:1013EA00004D50553630353020436172626F6E20A1
:1013FA003144204B616C6D616E2C2041746D656CBB
:10140A002053747564696F206D61696E2E630D0ACD
:10141A00004D50553630353020696E69742066614A
:10142A00696C65640057484F5F414D5F492072659A
:10143A006164206661696C6564206174206164641A
:10144A007265737320307836380057484F5F414DC4
:10145A005F493D005761726E696E673A2057484F7F
:10146A005F414D5F49206973206E6F7420313034BB
:10147A002C2062757420493243207265616420739E
:10148A0075636365656465642E20436F6E74696E67
:10149A00756520616E797761792E0D0A004B656555
:1014AA0070204D505536303530207374696C6C2E6F
:1014BA002043616C6962726174696E672067797230
:1014CA006F2E2E2E0D0A0043616C69627261746977
:1014DA006F6E204932432072656164206661696CCF
:1014EA00656400496E697469616C2073656E736F17
:1014FA00722072656164206661696C6564004932B4
:10150A00432072656164206572726F720D0A000071
:00000001FF
